{
  "_format": "hh-sol-artifact-1",
  "contractName": "Crowdfunding",
  "sourceName": "contracts/Crowdfunding.sol",
  "abi": [
    {
      "inputs": [
        {
          "internalType": "uint256",
          "name": "_target",
          "type": "uint256"
        },
        {
          "internalType": "uint256",
          "name": "_seconds",
          "type": "uint256"
        }
      ],
      "stateMutability": "nonpayable",
      "type": "constructor"
    },
    {
      "inputs": [
        {
          "internalType": "address",
          "name": "",
          "type": "address"
        }
      ],
      "name": "contributors",
      "outputs": [
        {
          "internalType": "uint256",
          "name": "",
          "type": "uint256"
        }
      ],
      "stateMutability": "view",
      "type": "function"
    },
    {
      "inputs": [
        {
          "internalType": "string",
          "name": "_description",
          "type": "string"
        },
        {
          "internalType": "address payable",
          "name": "_recipients",
          "type": "address"
        },
        {
          "internalType": "uint256",
          "name": "_value",
          "type": "uint256"
        }
      ],
      "name": "createRequests",
      "outputs": [],
      "stateMutability": "nonpayable",
      "type": "function"
    },
    {
      "inputs": [],
      "name": "deadline",
      "outputs": [
        {
          "internalType": "uint256",
          "name": "",
          "type": "uint256"
        }
      ],
      "stateMutability": "view",
      "type": "function"
    },
    {
      "inputs": [],
      "name": "getBalance",
      "outputs": [
        {
          "internalType": "uint256",
          "name": "",
          "type": "uint256"
        }
      ],
      "stateMutability": "view",
      "type": "function"
    },
    {
      "inputs": [
        {
          "internalType": "uint256",
          "name": "_requestNo",
          "type": "uint256"
        }
      ],
      "name": "makePay",
      "outputs": [],
      "stateMutability": "nonpayable",
      "type": "function"
    },
    {
      "inputs": [],
      "name": "manager",
      "outputs": [
        {
          "internalType": "address",
          "name": "",
          "type": "address"
        }
      ],
      "stateMutability": "view",
      "type": "function"
    },
    {
      "inputs": [],
      "name": "minContribution",
      "outputs": [
        {
          "internalType": "uint256",
          "name": "",
          "type": "uint256"
        }
      ],
      "stateMutability": "view",
      "type": "function"
    },
    {
      "inputs": [],
      "name": "numRequestes",
      "outputs": [
        {
          "internalType": "uint256",
          "name": "",
          "type": "uint256"
        }
      ],
      "stateMutability": "view",
      "type": "function"
    },
    {
      "inputs": [],
      "name": "raisedAmount",
      "outputs": [
        {
          "internalType": "uint256",
          "name": "",
          "type": "uint256"
        }
      ],
      "stateMutability": "view",
      "type": "function"
    },
    {
      "inputs": [],
      "name": "refund",
      "outputs": [],
      "stateMutability": "nonpayable",
      "type": "function"
    },
    {
      "inputs": [
        {
          "internalType": "uint256",
          "name": "",
          "type": "uint256"
        }
      ],
      "name": "request",
      "outputs": [
        {
          "internalType": "string",
          "name": "description",
          "type": "string"
        },
        {
          "internalType": "address payable",
          "name": "recipient",
          "type": "address"
        },
        {
          "internalType": "uint256",
          "name": "value",
          "type": "uint256"
        },
        {
          "internalType": "bool",
          "name": "completed",
          "type": "bool"
        },
        {
          "internalType": "uint256",
          "name": "totVoters",
          "type": "uint256"
        }
      ],
      "stateMutability": "view",
      "type": "function"
    },
    {
      "inputs": [],
      "name": "sendEth",
      "outputs": [],
      "stateMutability": "payable",
      "type": "function"
    },
    {
      "inputs": [],
      "name": "target",
      "outputs": [
        {
          "internalType": "uint256",
          "name": "",
          "type": "uint256"
        }
      ],
      "stateMutability": "view",
      "type": "function"
    },
    {
      "inputs": [],
      "name": "totcontributors",
      "outputs": [
        {
          "internalType": "uint256",
          "name": "",
          "type": "uint256"
        }
      ],
      "stateMutability": "view",
      "type": "function"
    },
    {
      "inputs": [
        {
          "internalType": "uint256",
          "name": "_requestNo",
          "type": "uint256"
        }
      ],
      "name": "voteRequest",
      "outputs": [],
      "stateMutability": "nonpayable",
      "type": "function"
    }
  ],
  "bytecode": "0x60806040523480156200001157600080fd5b5060405162001b9338038062001b938339818101604052810190620000379190620000e3565b8160038190555080426200004c919062000159565b600481905550606460028190555033600160006101000a81548173ffffffffffffffffffffffffffffffffffffffff021916908373ffffffffffffffffffffffffffffffffffffffff160217905550505062000194565b600080fd5b6000819050919050565b620000bd81620000a8565b8114620000c957600080fd5b50565b600081519050620000dd81620000b2565b92915050565b60008060408385031215620000fd57620000fc620000a3565b5b60006200010d85828601620000cc565b92505060206200012085828601620000cc565b9150509250929050565b7f4e487b7100000000000000000000000000000000000000000000000000000000600052601160045260246000fd5b60006200016682620000a8565b91506200017383620000a8565b92508282019050808211156200018e576200018d6200012a565b5b92915050565b6119ef80620001a46000396000f3fe6080604052600436106100e85760003560e01c80634cb6f4a51161008a578063b859f50c11610059578063b859f50c1461029f578063c59ee1dc146102c8578063d4b83992146102f3578063d845a4b31461031e576100e8565b80634cb6f4a514610209578063590e1ae3146102325780638ad5a2bb14610249578063aaffadf314610274576100e8565b80631f6d4942116100c65780631f6d49421461014d57806329dcb0cf1461018a5780633eb7647b146101b5578063481c6a75146101de576100e8565b806306e99fef146100ed57806312065fe0146100f7578063190cff0614610122575b600080fd5b6100f561035f565b005b34801561010357600080fd5b5061010c6104b7565b6040516101199190610d3f565b60405180910390f35b34801561012e57600080fd5b506101376104bf565b6040516101449190610d3f565b60405180910390f35b34801561015957600080fd5b50610174600480360381019061016f9190610dcc565b6104c5565b6040516101819190610d3f565b60405180910390f35b34801561019657600080fd5b5061019f6104dd565b6040516101ac9190610d3f565b60405180910390f35b3480156101c157600080fd5b506101dc60048036038101906101d79190610fa9565b6104e3565b005b3480156101ea57600080fd5b506101f361062f565b6040516102009190611027565b60405180910390f35b34801561021557600080fd5b50610230600480360381019061022b9190611042565b610655565b005b34801561023e57600080fd5b50610247610841565b005b34801561025557600080fd5b5061025e6109ec565b60405161026b9190610d3f565b60405180910390f35b34801561028057600080fd5b506102896109f2565b6040516102969190610d3f565b60405180910390f35b3480156102ab57600080fd5b506102c660048036038101906102c19190611042565b6109f8565b005b3480156102d457600080fd5b506102dd610c2f565b6040516102ea9190610d3f565b60405180910390f35b3480156102ff57600080fd5b50610308610c35565b6040516103159190610d3f565b60405180910390f35b34801561032a57600080fd5b5061034560048036038101906103409190611042565b610c3b565b604051610356959493929190611118565b60405180910390f35b60045442106103a3576040517f08c379a000000000000000000000000000000000000000000000000000000000815260040161039a906111be565b60405180910390fd5b6002543410156103e8576040517f08c379a00000000000000000000000000000000000000000000000000000000081526004016103df9061122a565b60405180910390fd5b60008060003373ffffffffffffffffffffffffffffffffffffffff1673ffffffffffffffffffffffffffffffffffffffff1681526020019081526020016000205403610447576006600081548092919061044190611279565b91905055505b346000803373ffffffffffffffffffffffffffffffffffffffff1673ffffffffffffffffffffffffffffffffffffffff168152602001908152602001600020600082825461049591906112c1565b9250508190555034600560008282546104ae91906112c1565b92505081905550565b600047905090565b60085481565b60006020528060005260406000206000915090505481565b60045481565b600160009054906101000a900473ffffffffffffffffffffffffffffffffffffffff1673ffffffffffffffffffffffffffffffffffffffff163373ffffffffffffffffffffffffffffffffffffffff1614610573576040517f08c379a000000000000000000000000000000000000000000000000000000000815260040161056a90611367565b60405180910390fd5b600060076000600854815260200190815260200160002090506008600081548092919061059f90611279565b9190505550838160000190816105b59190611593565b50828160010160006101000a81548173ffffffffffffffffffffffffffffffffffffffff021916908373ffffffffffffffffffffffffffffffffffffffff16021790555081816002018190555060008160030160006101000a81548160ff0219169083151502179055506000816004018190555050505050565b600160009054906101000a900473ffffffffffffffffffffffffffffffffffffffff1681565b60008060003373ffffffffffffffffffffffffffffffffffffffff1673ffffffffffffffffffffffffffffffffffffffff16815260200190815260200160002054116106d6576040517f08c379a00000000000000000000000000000000000000000000000000000000081526004016106cd906116b1565b60405180910390fd5b60006007600083815260200190815260200160002090506000816002015411610734576040517f08c379a000000000000000000000000000000000000000000000000000000000815260040161072b9061171d565b60405180910390fd5b600015158160050160003373ffffffffffffffffffffffffffffffffffffffff1673ffffffffffffffffffffffffffffffffffffffff16815260200190815260200160002060009054906101000a900460ff161515146107c9576040517f08c379a00000000000000000000000000000000000000000000000000000000081526004016107c090611789565b60405180910390fd5b60018160050160003373ffffffffffffffffffffffffffffffffffffffff1673ffffffffffffffffffffffffffffffffffffffff16815260200190815260200160002060006101000a81548160ff02191690831515021790555080600401600081548092919061083890611279565b91905055505050565b600454421180156108555750600354600554105b610894576040517f08c379a000000000000000000000000000000000000000000000000000000000815260040161088b906117f5565b60405180910390fd5b60008060003373ffffffffffffffffffffffffffffffffffffffff1673ffffffffffffffffffffffffffffffffffffffff1681526020019081526020016000205411610915576040517f08c379a000000000000000000000000000000000000000000000000000000000815260040161090c906116b1565b60405180910390fd5b600033905060008060003373ffffffffffffffffffffffffffffffffffffffff1673ffffffffffffffffffffffffffffffffffffffff16815260200190815260200160002054905060008060003373ffffffffffffffffffffffffffffffffffffffff1673ffffffffffffffffffffffffffffffffffffffff168152602001908152602001600020819055508173ffffffffffffffffffffffffffffffffffffffff166108fc829081150290604051600060405180830381858888f193505050501580156109e7573d6000803e3d6000fd5b505050565b60065481565b60025481565b600160009054906101000a900473ffffffffffffffffffffffffffffffffffffffff1673ffffffffffffffffffffffffffffffffffffffff163373ffffffffffffffffffffffffffffffffffffffff1614610a88576040517f08c379a0000000000000000000000000000000000000000000000000000000008152600401610a7f90611367565b60405180910390fd5b60045442118015610a9d575060035460055410155b610adc576040517f08c379a0000000000000000000000000000000000000000000000000000000008152600401610ad390611861565b60405180910390fd5b6000600760008381526020019081526020016000209050600015158160030160009054906101000a900460ff16151514610b4b576040517f08c379a0000000000000000000000000000000000000000000000000000000008152600401610b42906118cd565b60405180910390fd5b6002600654610b5a919061191c565b816004015411610b9f576040517f08c379a0000000000000000000000000000000000000000000000000000000008152600401610b9690611999565b60405180910390fd5b8060010160009054906101000a900473ffffffffffffffffffffffffffffffffffffffff1673ffffffffffffffffffffffffffffffffffffffff166108fc82600201549081150290604051600060405180830381858888f19350505050158015610c0d573d6000803e3d6000fd5b5060018160030160006101000a81548160ff0219169083151502179055505050565b60055481565b60035481565b6007602052806000526040600020600091509050806000018054610c5e906113b6565b80601f0160208091040260200160405190810160405280929190818152602001828054610c8a906113b6565b8015610cd75780601f10610cac57610100808354040283529160200191610cd7565b820191906000526020600020905b815481529060010190602001808311610cba57829003601f168201915b5050505050908060010160009054906101000a900473ffffffffffffffffffffffffffffffffffffffff16908060020154908060030160009054906101000a900460ff16908060040154905085565b6000819050919050565b610d3981610d26565b82525050565b6000602082019050610d546000830184610d30565b92915050565b6000604051905090565b600080fd5b600080fd5b600073ffffffffffffffffffffffffffffffffffffffff82169050919050565b6000610d9982610d6e565b9050919050565b610da981610d8e565b8114610db457600080fd5b50565b600081359050610dc681610da0565b92915050565b600060208284031215610de257610de1610d64565b5b6000610df084828501610db7565b91505092915050565b600080fd5b600080fd5b6000601f19601f8301169050919050565b7f4e487b7100000000000000000000000000000000000000000000000000000000600052604160045260246000fd5b610e4c82610e03565b810181811067ffffffffffffffff82111715610e6b57610e6a610e14565b5b80604052505050565b6000610e7e610d5a565b9050610e8a8282610e43565b919050565b600067ffffffffffffffff821115610eaa57610ea9610e14565b5b610eb382610e03565b9050602081019050919050565b82818337600083830152505050565b6000610ee2610edd84610e8f565b610e74565b905082815260208101848484011115610efe57610efd610dfe565b5b610f09848285610ec0565b509392505050565b600082601f830112610f2657610f25610df9565b5b8135610f36848260208601610ecf565b91505092915050565b6000610f4a82610d6e565b9050919050565b610f5a81610f3f565b8114610f6557600080fd5b50565b600081359050610f7781610f51565b92915050565b610f8681610d26565b8114610f9157600080fd5b50565b600081359050610fa381610f7d565b92915050565b600080600060608486031215610fc257610fc1610d64565b5b600084013567ffffffffffffffff811115610fe057610fdf610d69565b5b610fec86828701610f11565b9350506020610ffd86828701610f68565b925050604061100e86828701610f94565b9150509250925092565b61102181610d8e565b82525050565b600060208201905061103c6000830184611018565b92915050565b60006020828403121561105857611057610d64565b5b600061106684828501610f94565b91505092915050565b600081519050919050565b600082825260208201905092915050565b60005b838110156110a957808201518184015260208101905061108e565b60008484015250505050565b60006110c08261106f565b6110ca818561107a565b93506110da81856020860161108b565b6110e381610e03565b840191505092915050565b6110f781610f3f565b82525050565b60008115159050919050565b611112816110fd565b82525050565b600060a082019050818103600083015261113281886110b5565b905061114160208301876110ee565b61114e6040830186610d30565b61115b6060830185611109565b6111686080830184610d30565b9695505050505050565b7f596f752068617665206d6973736564207468652074696d650000000000000000600082015250565b60006111a860188361107a565b91506111b382611172565b602082019050919050565b600060208201905081810360008301526111d78161119b565b9050919050565b7f4d696e696d756d20636f6e747269627574696f6e206973206e6f74206d657400600082015250565b6000611214601f8361107a565b915061121f826111de565b602082019050919050565b6000602082019050818103600083015261124381611207565b9050919050565b7f4e487b7100000000000000000000000000000000000000000000000000000000600052601160045260246000fd5b600061128482610d26565b91507fffffffffffffffffffffffffffffffffffffffffffffffffffffffffffffffff82036112b6576112b561124a565b5b600182019050919050565b60006112cc82610d26565b91506112d783610d26565b92508282019050808211156112ef576112ee61124a565b5b92915050565b7f4f6e6c79206d616e616765722063616e2063616c6c20746869732066756e637460008201527f696f6e0000000000000000000000000000000000000000000000000000000000602082015250565b600061135160238361107a565b915061135c826112f5565b604082019050919050565b6000602082019050818103600083015261138081611344565b9050919050565b7f4e487b7100000000000000000000000000000000000000000000000000000000600052602260045260246000fd5b600060028204905060018216806113ce57607f821691505b6020821081036113e1576113e0611387565b5b50919050565b60008190508160005260206000209050919050565b60006020601f8301049050919050565b600082821b905092915050565b6000600883026114497fffffffffffffffffffffffffffffffffffffffffffffffffffffffffffffffff8261140c565b611453868361140c565b95508019841693508086168417925050509392505050565b6000819050919050565b600061149061148b61148684610d26565b61146b565b610d26565b9050919050565b6000819050919050565b6114aa83611475565b6114be6114b682611497565b848454611419565b825550505050565b600090565b6114d36114c6565b6114de8184846114a1565b505050565b5b81811015611502576114f76000826114cb565b6001810190506114e4565b5050565b601f82111561154757611518816113e7565b611521846113fc565b81016020851015611530578190505b61154461153c856113fc565b8301826114e3565b50505b505050565b600082821c905092915050565b600061156a6000198460080261154c565b1980831691505092915050565b60006115838383611559565b9150826002028217905092915050565b61159c8261106f565b67ffffffffffffffff8111156115b5576115b4610e14565b5b6115bf82546113b6565b6115ca828285611506565b600060209050601f8311600181146115fd57600084156115eb578287015190505b6115f58582611577565b86555061165d565b601f19841661160b866113e7565b60005b828110156116335784890151825560018201915060208501945060208101905061160e565b86831015611650578489015161164c601f891682611559565b8355505b6001600288020188555050505b505050505050565b7f596f7520617265206e6f7420636f6e7472696275746f722e2e00000000000000600082015250565b600061169b60198361107a565b91506116a682611665565b602082019050919050565b600060208201905081810360008301526116ca8161168e565b9050919050565b7f54686973205265717565737420646f6573206e6f742065786973740000000000600082015250565b6000611707601b8361107a565b9150611712826116d1565b602082019050919050565b60006020820190508181036000830152611736816116fa565b9050919050565b7f596f75206861766520616c726561647920766f7465642e2e0000000000000000600082015250565b600061177360188361107a565b915061177e8261173d565b602082019050919050565b600060208201905081810360008301526117a281611766565b9050919050565b7f596f7520617265206e6f742061626c652074616b6520726566756e6400000000600082015250565b60006117df601c8361107a565b91506117ea826117a9565b602082019050919050565b6000602082019050818103600083015261180e816117d2565b9050919050565b7f46756e647320617265207374696c6c20636f6d696e672e2e0000000000000000600082015250565b600061184b60188361107a565b915061185682611815565b602082019050919050565b6000602082019050818103600083015261187a8161183e565b9050919050565b7f546865207265717565737420686173206265656e20636f6d706c657465640000600082015250565b60006118b7601e8361107a565b91506118c282611881565b602082019050919050565b600060208201905081810360008301526118e6816118aa565b9050919050565b7f4e487b7100000000000000000000000000000000000000000000000000000000600052601260045260246000fd5b600061192782610d26565b915061193283610d26565b925082611942576119416118ed565b5b828204905092915050565b7f4d616a6f7269747920646f6573206e6f7420737570706f727400000000000000600082015250565b600061198360198361107a565b915061198e8261194d565b602082019050919050565b600060208201905081810360008301526119b281611976565b905091905056fea264697066735822122015ffe65464d318e72392e8d1f1c8b2e25762d15658758bf01caefdbff98e46f064736f6c63430008110033",
  "linkReferences": {},
  "deployedLinkReferences": {}
}